:020000040800F2
:1000000030080020ED1A0008F51A0008F71A000859
:10001000F91A0008FB1A0008FD1A00080000000089
:10002000000000000000000000000000FF1A0008AF
:10003000011B000800000000031B0008D914000881
:10004000071B0008071B0008071B0008071B000808
:10005000071B0008071B0008071B0008071B0008F8
:10006000071B0008071B0008071B0008071B0008E8
:10007000071B0008071B0008071B0008071B0008D8
:10008000071B0008071B0008071B000800000000F2
:10009000000000000000000000000000071B000836
:1000A000071B0008071B0008071B0008071B0008A8
:1000B000071B0008071B0008071B0008071B000898
:1000C000071B0008071B0008071B0008771600081D
:1000D000071B000815140008071B0008071B000871
:1000E000071B0008071B0008071B00080000000092
:1000F0000000000000000000000000000000000000
:1001000000000000000000000000000000000000EF
:100110000000000000000000071B0008071B00088B
:1001200000F002F800F03AF80AA090E8000C8244CF
:100130008344AAF10107DA4501D100F02FF8AFF2AC
:10014000090EBAE80F0013F0010F18BFFB1A43F0B5
:1001500001031847E41D0000041E0000103A24BFEC
:1001600078C878C1FAD8520724BF30C830C144BF1C
:1001700004680C607047000000230024002500265E
:10018000103A28BF78C1FBD8520728BF30C148BFFA
:100190000B6070471FB51FBD10B510BD01F0A5FD68
:1001A0001146FFF7F7FF01F076FA01F0C3FD03B443
:1001B000FFF7F2FF03BC01F0C7FD000010B50446D5
:1001C000CC48844208D10121042000F03AFB0021F0
:1001D000042000F036FB46E0C748844208D10121E4
:1001E000082000F02EFB0021082000F02AFB3AE056
:1001F000C248844208D10121102000F022FB0021D6
:10020000102000F01EFB2EE0BD48844208D10121E1
:10021000202000F016FB0021202000F012FB22E03D
:10022000B848844208D10121402000F00AFB002197
:10023000402000F006FB16E0B348844208D10121BB
:10024000802000F0FEFA0021802000F0FAFA0AE097
:10025000AE48844207D10121801500F0F2FA002156
:10026000A01500F0EEFA10BD10B50121084600F00F
:10027000E8FA0021012000F0E4FA10BD2DE9F04178
:10028000024600250026002000230024002791F8C4
:1002900003C00CF00F0591F803C00CF0100CBCF17A
:1002A000000F03D091F802C04CEA050591F800C098
:1002B000BCF1000F31D0146800202BE04FF0010C8E
:1002C0000CFA00F3B1F800C00CEA03069E4220D1FC
:1002D00083004FF00F0C0CFA03F7BC4305FA03FC44
:1002E0004CEA040491F803C0BCF1280F06D14FF08A
:1002F000010C0CFA00FCC2F814C00AE091F803C02B
:10030000BCF1480F05D14FF0010C0CFA00FCC2F80B
:1003100010C0401C0828D1D31460B1F800C0BCF153
:10032000FF0F34DD546800202EE000F1080C4FF080
:10033000010808FA0CF3B1F800C00CEA03069E426B
:1003400021D183004FF00F0C0CFA03F7BC4305FAE0
:1003500003FC4CEA040491F803C0BCF1280F05D15A
:1003600000F1080C08FA0CF8C2F8148091F803C0E8
:10037000BCF1480F07D100F1080C4FF0010808FA52
:100380000CF8C2F81080401C0828CED35460BDE899
:10039000F0814FF6FF710180022181700421C1704C
:1003A00070470246002093680B400BB1012000E02B
:1003B000002070470146886880B2704702460020DE
:1003C000D3680B400BB1012000E0002070470146CC
:1003D000C86880B2704701617047416170470AB1D7
:1003E000016100E041617047C16070474FF48032A5
:1003F0000A43826181618261826982697047024633
:100400000020434B18684FF68073184040EA0210F2
:1004100008433F4B186070473E49C8617047F0B5CC
:100420000A46002300240021002500F00046B6F112
:10043000004F02D1364EF16901E0354E7168C0F3CC
:10044000034583B200F44016B6F5401F08D121F0F1
:1004500070612F4E766826F070662D4F7E6012E038
:1004600000F48016B6F5801F06D1032606FA05F4BF
:10047000A14341F0706106E0460D360103FA06F62D
:10048000B14341F0706122B1460D360103FA06F620
:10049000314300F00046B6F1004F02D11C4EF1612D
:1004A00001E01B4E7160F0BD30B500228B071C0FC0
:1004B0000F2303FA04F2164B08338C1053F8243040
:1004C0009343134C08348D1044F8253023468C1088
:1004D00053F824308C07240F00FA04F423430C4C07
:1004E00008348D1044F8253030BD0A49DC310860ED
:1004F0007047000000080140000C0140001001405E
:100500000014014000180140001C0140002001407F
:100510000000014000002042E648006840F0010071
:10052000E449086008464068E3490840E1494860FA
:1005300008460068E1490840DE490860084600684E
:1005400020F4802008600846406820F4FE004860DF
:100550004FF41F0088600020C8627047D5490968C1
:1005600021F48031D34A11601146096821F48021B9
:100570001160B0F5803F03D0B0F5802F0ED106E0BA
:10058000CC49096841F48031CA4A116007E0C94981
:10059000096841F4A021C74A116000E000BF00BF14
:1005A000704710B501460022002300204A11012A9D
:1005B00002D1C04C236806E0022A02D1BD4C236A56
:1005C00001E0BC4C636A01F01F02012494401C400E
:1005D0000CB1012000E0002010BD38B500200090D3
:1005E0000024002500BF3120FFF7DBFF05460098FF
:1005F000401C00900098B0F5A06F01D0002DF2D003
:100600003120FFF7CEFF08B1012400E0002420468E
:1006100038BD01460020A74A106820F0F80040EAE3
:10062000C10010607047A64908607047024600206C
:10063000A04B586820F4741042EA010318439D4B04
:10064000586070479E490866704702460020994BE3
:10065000D86A9C4B184042EA01031843954BD86274
:10066000704701460020934A506820F00300084379
:10067000506070478F48406800F00C00704701469A
:1006800000208C4A506820F0F0000843506070470A
:1006900001460020874A506820F4E060084350601B
:1006A000704701460020834A506820F4605040EAB9
:1006B000C1005060704729B17E4A527A02437D4B97
:1006C0005A7204E07B4A527A82437A4B5A727047DC
:1006D0007B49D8310860704701460020754A506850
:1006E00020F440400843506070470021714A203296
:1006F0001170704A82F82010012802D004280AD113
:1007000004E001216B4A2032117005E00521694A9D
:100710002032117000E000BF00BF70476A490860D6
:1007200070476449096A0143624A11627047664929
:1007300044390860704770B500210023002400226E
:1007400000255C4E766806F00C0121B1042905D025
:10075000082921D105E05D4E066020E05B4E066071
:100760001DE0544E766806F47013524E766806F417
:100770008034022606EB93431CB9554E5E43066057
:1007800009E04C4EF66A06F00F06751C4F4EB6FB9C
:10079000F5F65E43066002E04C4E066000BF00BF07
:1007A000444E766806F0F00109094A4E725C06680C
:1007B000D64046603F4E766806F4E061090A454E31
:1007C000725C4668D64086603A4E766806F46051A0
:1007D000C90A404E725C4668D640C660354E76689F
:1007E00006F44041890B3C4E725CC668B6FBF2F6DB
:1007F000066170BD29B12F4A526902432D4B5A61DF
:1008000004E02C4A526982432A4B5A61704729B14D
:10081000284A92690243274B9A6104E0254A92696B
:100820008243244B9A61704729B1224AD26902431C
:10083000204BDA6104E01F4AD26982431D4BDA6122
:10084000704729B11B4AD26802431A4BDA6004E0B0
:10085000184AD2688243174BDA60704729B1154AAB
:1008600012690243134B1A6104E0124A126982436F
:10087000104B1A617047144940390860704710499D
:10088000C86470470B49C87170470A48406A40F015
:10089000807008494862704701460020054A926806
:1008A0000A400AB1012000E0002070470149887227
:1008B00070470000001002400000FFF8FFFFF6FE46
:1008C00000004242F0FFFEFF8004424200127A0024
:1008D00000093D00000000201000002010B5044673
:1008E000BE48844208D101218014FFF7AAFF0021ED
:1008F000A014FFF7A6FF16E0B948844208D10121F1
:100900000014FFF7ABFF00212014FFF7A7FF0AE058
:10091000B448844207D10121C013FFF79FFF002193
:10092000E013FFF79BFF10BD10B50022028802F410
:1009300041520B884C8823438C882343CC88234323
:100940000C8923434C8923438C892343CC8923433B
:100950001A430280838B4FF2FF74234083830B8AF8
:10096000038210BD2DE9F04F85B005460C464FF0CF
:10097000000902274FF000084FF0010B0026B24695
:10098000A88B4FF240010840A88302202884B5F8C4
:100990001C90A068022801D100BF38E0A08810B9DF
:1009A0004FF0010B01E04FF0020B8D48854200D162
:1009B00000E000BF6846FFF7BEFEDDF800A0E0885B
:1009C000B0F5007F0AD14FEA1A2000EB800040000A
:1009D000A168B0FBF1F0401D86B20BE04FEA4B106E
:1009E000BAFBF0F000EB80004000A168B0FBF1F032
:1009F000401D86B20A20B6FBF0F606F00108A6EB11
:100A00000800C0F34F074FF6FF7000EA0828022FD6
:100A100001DBFF2F02DD02274FF00008E08840EAEB
:100A2000080038432884A088A189084361880843C6
:100A30002188084340F4006040EA0909A5F81C90A9
:100A400005B0BDE8F08F0021018041808180C18028
:100A5000018141818181C18107210182704700218B
:100A6000018041808180C1800221816000218181DB
:100A7000704721B1028842F04002028004E00288FF
:100A80004FF6BF731A400280704721B1828B42F447
:100A90008062828304E0828B4FF6FF331A408283A8
:100AA000704730B5002400230C110125A540ABB2DE
:100AB0001AB185881D43858002E085889D43858025
:100AC00030BD1AB183880B43838002E083888B4357
:100AD00083807047818170470146888970474FF64F
:100AE000FF62914204D0028842F48072028004E0E6
:100AF00002884FF6FF631A400280704721B1828856
:100B000042F00402828004E082884FF6FB731A40B0
:100B10008280704702884FF2FF731A400280028879
:100B20000A4302807047018841F480510180704778
:100B300021B1028842F40052028004E002884DF69E
:100B4000FF731A400280704702460020012901D03D
:100B5000108B00E0908A70470146088A7047B1F513
:100B6000804F04D1028842F48042028004E002886F
:100B70004BF6FF731A40028070470246002013892B
:100B80000B400BB1012000E000207047CA430281F6
:100B90007047F0B50246002000240023002501F034
:100BA0000F070126BE40B4B20B1101269E40B3B21E
:100BB000968806EA03051689264016B10DB1012074
:100BC00000E00020F0BD10B5002201F00F04012369
:100BD000A3409AB2D343038110BD0000003001400E
:100BE00000380040003C004010B50446FB488442F9
:100BF00009D101218803FFF724FE00214FF4804032
:100C0000FFF71FFE32E0F648844209D10121480473
:100C1000FFF724FE00214FF40030FFF71FFE25E010
:100C2000F048844209D101218804FFF717FE002112
:100C30004FF48020FFF712FE18E0EB48844209D100
:100C40000121C804FFF70AFE00214FF40020FFF73E
:100C500005FE0BE0E548844208D101210805FFF7B5
:100C6000FDFD00214FF48010FFF7F8FD10BD2DE9C8
:100C7000F04786B005460E460024A24600BFA146B6
:100C80000027B08900B100BF2F462C8A4CF6FF70B8
:100C90000440F08804432C82AC894EF6F3100440E3
:100CA000B08831890843718908430443AC81AC8A18
:100CB0004FF6FF400440B0890443AC8201A8FFF71F
:100CC0003AFDC648874202D1DDF810A001E0DDF808
:100CD0000CA0A88900F4004040B10AEBCA0000EB68
:100CE0000A1031684900B0FBF1F807E00AEBCA00CE
:100CF00000EB0A1031688900B0FBF1F86420B8FB02
:100D0000F0F004012009642101FB1089A88900F496
:100D1000004040B1322000EBC900B0FBF1F000F020
:100D20000700044308E0322000EB09106421B0FB07
:100D3000F1F000F00F0004432C8106B0BDE8F0870D
:100D40004FF41651016000218180C18001810C2186
:100D5000418100218181704710B502460020108A30
:100D60004FF2FF0318400B884C8823438C882343A1
:100D7000CC8823431843108210BD0021018041809C
:100D80008180C180704721B1828942F40052828102
:100D900004E082894DF6FF731A4082817047F0B5F6
:100DA0000346002400260025002040F66A17B942B9
:100DB00000D100BF1846C1F3421401F01F060127FD
:100DC00007FA06F5012C01D10C3004E0022C01D108
:100DD000103000E014301AB107682F43076002E0BA
:100DE0000768AF430760F0BD1AB1838A0B43838263
:100DF00002E0838A8B4383827047028A4FF6F07346
:100E00001A400282028A0A430282704782894FF2A4
:100E1000FF731A40828182890A438281704721B11F
:100E2000828942F00202828104E082894FF6FD73DA
:100E30001A4082817047028A4FF6DF731A4002829D
:100E4000028A0A430282704721B1028A42F4804238
:100E5000028204E0028A4BF6FF731A400282704756
:100E6000C1F308028280704701468888C0F30800F9
:100E70007047818941F0010181817047028BD2B2B4
:100E80000283028B42EA012202837047028B02F442
:100E90007F420283028B0A430283704721B1828A18
:100EA00042F02002828204E0828A4FF6DF731A4009
:100EB0008282704721B1828A42F01002828204E06D
:100EC000828A4FF6EF731A408282704721B1828A7C
:100ED00042F00802828204E0828A4FF6F7731A40D9
:100EE0008282704721B1828942F40042828103E00C
:100EF0008289C2F30E028281704721B1828A42F454
:100F00000062828204E0828A4FF2FF731A4082827A
:100F10007047828A4FF6FB731A408282828A0A43A4
:100F20008282704721B1828A42F00202828204E00A
:100F3000828A4FF6FD731A40828270470246002073
:100F4000B1F5007F00D100BF13880B400BB1012029
:100F500000E00020704701F40072B2F5007F00D17C
:100F600000BFCA430280704770B5024600240023C8
:100F70000025002040F66A16B14200D100BFC1F33F
:100F8000421501F01F03012606FA03F3012D02D1D9
:100F90009689334006E0022D02D1168A334001E0E3
:100FA000968A33400C12012606FA04F4168834405F
:100FB00013B10CB1012000E0002070BD10B500227B
:100FC000002340F66A14A14200D100BF0A12012496
:100FD0009440A3B2DC43048010BD000000380140FF
:100FE0000044004000480040004C004000500040D9
:100FF00001B502E00098401E009000980028F9D149
:1010000008BD00B587B001210420FFF700FC0121D5
:101010000846FFF7FCFBB020ADF8180003208DF860
:101020001A0018208DF81B0006A9F648FFF726F9CC
:101030004020ADF8180003208DF81A0018208DF814
:101040001B0006A9EF48FFF719F901210803FFF774
:10105000DEFB0020ADF804004FF48270ADF806000E
:101060000020ADF80800ADF80A00ADF80C00202013
:10107000ADF810000020ADF812004FF40070ADF88C
:101080000E0001A9E048FFF74FFC0121DE48FFF701
:10109000F0FC01A9DC48FFF747FC0121DA48FFF723
:1010A000E8FC01A9D848FFF73FFC0121D648FFF72B
:1010B000E0FC07B000BD10B50446A1B2D348FFF76D
:1010C00093F90F20FFF794FF4FF40071CF48FFF71B
:1010D00082F90F20FFF78CFF4FF40071CB48FFF728
:1010E0007CF90F20FFF784FF10BD01460878704798
:1010F00010B5044644F410642046FFF7DCFF10BD31
:1011000010B5044644F488542046FFF7D4FF10BDC0
:1011100010B5044644F424542046FFF7CCFF10BD1C
:1011200010B5044644F444542046FFF7C4FF10BDF4
:1011300070B50446A4F12000C4B200250AE0B44909
:10114000052202FB04114819FFF7CFFF0646FFF7FF
:10115000DFFF6D1C052DF2DB0020FFF7D9FF70BD0E
:1011600070B50446A4F12000C4B200250AE0A849E5
:10117000052202FB04114819FFF7B7FF0646FFF7E7
:10118000CFFF6D1C052DF2DB0020FFF7C9FF70BDFE
:1011900010B50446012C02D13F20FFF7A9FF022C15
:1011A00002D13F20FFF7ACFF0C2C05D13F20FFF709
:1011B000A7FF3F20FFF79CFF10BD10B5044644F089
:1011C000B8042046FFF794FF10BD10B5044644F064
:1011D000B8042046FFF794FF10BD10B5044644F054
:1011E00040042046FFF784FF10BD10B5044644F0CC
:1011F00040042046FFF784FF10BD70B5044600256B
:10120000002626E0092E05DC761C2078FFF790FFEB
:10121000641C1EE0012D08DA0120FFF7CEFF00203C
:10122000FFF7DBFF681CC5B213E0132E05DC761C4C
:101230002078FFF77DFF641C0BE0022D08DA022006
:10124000FFF7BBFF0020FFF7C8FF681CC5B200E036
:1012500002E020780028D5D100BF70BD70B50446EB
:101260000026002508E0092D05DC6D1C2078FFF71D
:1012700077FF641C00E002E020780028F3D100BF73
:1012800070BD70B53F20FFF73BFF3F20FFF730FFF9
:10129000002410E02046FFF790FF002507E02846D5
:1012A000FFF79BFFFF20FFF733FF681CC5B2402DFF
:1012B000F5DB601CC4B2082CECDB70BD70B53F20C0
:1012C000FFF71EFF3F20FFF713FF002410E020462A
:1012D000FFF773FF002507E02846FFF77EFF002099
:1012E000FFF716FF681CC5B2402DF5DB601CC4B2C9
:1012F000082CECDB70BD70B53F20FFF701FF3F20ED
:10130000FFF7F6FE002410E02046FFF75EFF002501
:1013100007E02846FFF769FFFF20FFF701FF681C81
:10132000C5B2402DF5DB601CC4B2082CECDB70BDEF
:1013300070B53F20FFF7E4FE3F20FFF7D9FE002401
:1013400010E02046FFF741FF002507E02846FFF7A1
:101350004CFF0020FFF7E4FE681CC5B2402DF5DB12
:10136000601CC4B2082CECDB70BD10B5044600BF95
:1013700020212046FFF7E2FD0028F9D02046FFF7A4
:1013800073FDC0B210BD10B5044600BF0121204658
:10139000FFF7F3FB0028F9D02046FFF79DFBC0B212
:1013A00010BD70B504460D4600BF80212046FFF7F2
:1013B000C5FD0028F9D029462046FFF751FD70BD34
:1013C0002DE9F04106460C460027B846002500BF2F
:1013D00007E03046FFF7C9FF074604F8017B681CA9
:1013E000C5B2052DF5DBBDE8F08170B505460C46AC
:1013F00004E014F8011B2846FFF7D3FF20780028EB
:10140000F7D170BD000801400030014000100140DC
:10141000561D000810B540F22551FE48FFF7A4FD07
:10142000012858D10020FFF7C8FE0020FFF7D5FEA5
:10143000FF20FFF7DDFDFF20FFF7DAFDF649F54855
:10144000FFF7BEFFFF20FFF7D3FDFF20FFF7D0FD22
:10145000FF20FFF7CDFDFF20FFF7CAFDED48FFF7A6
:1014600003FDEE490880FF20FFF7C2FDFF20FFF7D4
:10147000BFFDFF20FFF7BCFDFF20FFF7B9FDE548EA
:10148000FFF7F2FCE649E74A12788854FF20FFF79D
:10149000AFFDFF20FFF7ACFDE2480078401CE149BA
:1014A0000870E1480078401CDF490870DA49D948E3
:1014B000FFF79BFFFF20FFF79BFDFF20FFF798FD45
:1014C000FF20FFF795FDFF20FFF792FD40F2255129
:1014D000D048FFF773FD10BDD448006820B1D34851
:1014E0000068401ED14908607047D049086000BFBD
:1014F000CE4909680029FBD1704708B501211020A9
:10150000FFF785F94FF6FF70ADF8000003208DF866
:10151000020010208DF803006946C548FEF7AEFEB4
:10152000252000F097FA4FF40071C148FEF753FFF1
:101530001E20FFF75DFD4FF40071BD48FEF74DFF23
:10154000FF20FFF755FD01226021BA48FFF7A9FAF5
:10155000232000F07FFA0C20FFF71AFE08BD00B52B
:1015600085B0012144F21500FFF751F94FF40070E6
:10157000ADF8100003208DF8120018208DF813002C
:1015800004A9AD48FEF77AFE4FF48060ADF8100074
:1015900004208DF8130004A9A748FEF76FFE4FF44E
:1015A000165000900020ADF80400ADF80600ADF82C
:1015B0000800ADF80C000C20ADF80A00694695480B
:1015C000FFF755FB93480C30008840F00800914924
:1015D0000C3108800846008840F004000880084666
:1015E000008840F020000880252000F033FA012117
:1015F0008848FFF7C8FB05B000BD2DE9F04107465C
:101600000C4615461E46012F02D0022F14D109E0C8
:101610002046FFF7D2FD2846FFF7DFFD3046FFF7F3
:10162000ECFD09E02046FFF7D0FD2846FFF7DDFD81
:101630003046FFF713FE00BF00BFBDE8F0812DE983
:10164000F04107460C460025A846002600BF0EE0E4
:1016500007E03846FFF797FE0546012D01D004F854
:10166000015B14F8011B0029F3D1701CC6B2052ED2
:10167000EEDBBDE8F08110B560216E48FFF789FA16
:10168000012803D16D496B48FFF7D9FF60216948F4
:10169000FFF799FA10BDFFF7B4FCFFF72EFF68487B
:1016A00000684108481EB0F1807F00D31BE0481E4F
:1016B0004FF0E022506150170F22002807DA13077D
:1016C0001D0E604B00F00F04241F1D5503E013078F
:1016D0001C0E5D4B1C5400BF00204FF0E0229061B7
:1016E0000720106100BFFFF73AFFFFF7CAFDFF2098
:1016F000FFF77EFCFFF7E2FDFF20FFF779FCFFF725
:10170000FAFDFF20FFF774FCFFF712FEFF20FFF742
:101710006FFC0020FFF751FD0020FFF75EFDFF206A
:10172000FFF766FC95E10020FFF747FD0020FFF77B
:1017300054FD0020FFF749FD0020FFF756FD00246F
:1017400071E1012C04D0022C61D0032C60D104E1A2
:101750003EA3002211460120FFF74FFF3CA30022C9
:1017600001210846FFF749FF3AA300220221012088
:10177000FFF743FF38A3002203210120FFF73DFFBD
:1017800036A3002204210120FFF737FF34A30022F3
:1017900005210120FFF731FF32A30022062101209D
:1017A000FFF72BFF30A3002207210120FFF725FFC1
:1017B0002EA3002211460220FFF71FFF2CA30022B8
:1017C00001210220FFF719FF2AA300220221084667
:1017D000FFF713FF28A3002203210220FFF70DFFCC
:1017E00026A3002204210220FFF707FF24A30022E2
:1017F00005210220FFF701FF22A30022062102207B
:10180000FFF7FBFE20A30022072102203EE040E07C
:1018100007E10000003801406C0100204A00002070
:101820006C0000204600002048000020140000202A
:101830000010014000300140000801409E010020DE
:101840005800002018ED00E000E400E03100000046
:1018500032000000330000003400000035000000BA
:101860003600000037000000380000002D31000075
:101870002D3200002D3300002D3400002D350000E6
:101880002D3600002D3700002D380000FFF7B5FE83
:10189000C7E00520FFF729FE74A3002211460120AE
:1018A000FFF7ABFE72A3002201210846FFF7A5FE59
:1018B00070A3002202210120FFF79FFE6EA30022E9
:1018C00003210120FFF799FE6CA3002204210120CF
:1018D000FFF793FE6AA3002205210120FFF78DFE8A
:1018E00068A3002206210120FFF787FE66A30022DD
:1018F00007210120FFF781FE64A300221146022088
:10190000FFF77BFE62A3002201210220FFF775FE94
:1019100060A3002202210846FFF76FFE5EA30022AB
:1019200003210220FFF769FE5CA3002204210220AC
:10193000FFF763FE5AA3002205210220FFF75DFE98
:1019400058A3002206210220FFF757FE56A30022CB
:1019500007210220FFF751FE63E00520FFF7C5FDD8
:1019600052A3002211460120FFF747FE50A3002298
:1019700001210846FFF741FE4EA30022022101206B
:10198000FFF73BFE4CA3002203210120FFF735FEA9
:101990004AA3002204210120FFF72FFE48A30022C2
:1019A00005210120FFF729FE46A300220621012080
:1019B000FFF723FE44A3002207210120FFF71DFEAD
:1019C00042A3002211460220FFF717FE40A3002287
:1019D00001210220FFF711FE3EA30022022108464A
:1019E000FFF70BFE3CA3002203210220FFF705FEB8
:1019F0003AA3002204210220FFF7FFFD38A30022B2
:101A000005210220FFF7F9FD36A30022062102205E
:101A1000FFF7F3FD34A3002207210220FFF7EDFDBD
:101A200000BF00BF641C042CFFF68BAE0520FFF73F
:101A30005CFD0020FFF7C1FB0020FFF7CEFB00207C
:101A4000FFF7C3FB0020FFF7D0FBFFF737FCFFF7E2
:101A50006FFC68E600F01F020121914042099200EC
:101A600002F1E022C2F800117047000039000000C6
:101A700031300000313100003132000031330000DC
:101A80003134000031350000313600002D390000BE
:101A90002D3130002D3131002D3132002D31330008
:101AA0002D3134002D3135002D3136003137000015
:101AB000313800003139000032300000323100008E
:101AC0003232000032330000323400002D31370052
:101AD0002D3138002D3139002D3230002D323100BA
:101AE0002D3232002D3233002D3234000948804728
:101AF00009480047FEE7FEE7FEE7FEE7FEE7FEE7F0
:101B0000FEE7FEE7FEE7FEE704480549054A064B07
:101B100070470000E71B0008210100083002002088
:101B20003008002030040020300400200CB50020D4
:101B3000019000906348006840F48030614908607B
:101B400000BF6048006800F4003000900198401C1D
:101B50000190009818B90198B0F5A06FF1D15948DB
:101B6000006800F4003010B10120009001E0002076
:101B700000900098012831D152484068514948608E
:101B80000846406848600846406848600846406823
:101B900020F47C1048600846406840F49810486083
:101BA0000846006840F08070086000BF4548006843
:101BB00000F000700028F9D04248406820F003008F
:101BC000404948600846406840F00200486000BF55
:101BD0003C48406800F00C000828F9D10CBD10B555
:101BE000FFF7A4FF10BD10B53648006840F00100B3
:101BF0003449086008464068334908403149486024
:101C000008460068314908402E49086008460068C7
:101C100020F4802008600846406820F4FE004860F8
:101C20004FF41F0088600020C862FFF7D8FF4FF014
:101C300000602749086010BD30B500210020002257
:101C40000023204C646804F00C0121B1042906D063
:101C5000082925D107E01F4C1F4D2C6024E01D4CA6
:101C60001D4D2C6020E0174C646804F47010154C76
:101C7000646804F48032022404EB904022B9174CCB
:101C80004443154D2C600AE00E4CE46A04F00F0446
:101C9000631C104CB4FBF3F444430F4D2C6003E081
:101CA0000C4C0D4D2C6000BF00BF064C6468C4F3A3
:101CB00003140B4D295D084C2468CC40064D2C6064
:101CC00030BD0000001002400000FFF8FFFFF6FEEC
:101CD00008ED00E000127A005800002000093D00E5
:101CE0005C000020704770477047754600F028F888
:101CF000AE4605006946534620F00700854618B0F9
:101D000020B5FFF701FFBDE820404FF000064FF07F
:101D100000074FF000084FF0000B21F00701AC4620
:101D2000ACE8C009ACE8C009ACE8C009ACE8C0093F
:101D30008D4670470446AFF300802046FEF737FA21
:101D400000487047D001002001491820ABBEFEE7D3
:101D5000260002007047000000000000005F000045
:101D60000007000700147F147F14242A7F2A1223FF
:101D70001308646236495522500005030000001C18
:101D80002241000041221C00082A1C2A0808083EA3
:101D9000080800503000000808080808003030002B
:101DA0000020100804023E5149453E00427F400099
:101DB00042615149462141454B311814127F102789
:101DC000454545393C4A49493001710905033649C1
:101DD000494936064949291E003636000000563664
:101DE0000000000814224114141414144122140891
:101DF000000201510906324979413E7E1111117EDE
:101E00007F494949363E414141227F4141221C7F61
:101E1000494949417F090901013E414151327F0849
:101E200008087F00417F41002040413F017F0814A6
:101E300022417F404040407F0204027F7F0408101F
:101E40007F3E4141413E7F090909063E4151215EE5
:101E50007F09192946464949493101017F01013F5E
:101E60004040403F1F2040201F7F2018207F6314E8
:101E70000814630304780403615149454300007F5B
:101E80004141020408102041417F00000402010288
:101E90000440404040400001020400205454547863
:101EA0007F484444383844444420384444487F38C8
:101EB00054545418087E090102081454543C7F08F5
:101EC00004047800447D40002040443D00007F1021
:101ED000284400417F40007C041804787C080404F6
:101EE0007838444444387C14141408081414187CBA
:101EF0007C080404084854545420043F4440203CC7
:101F00004040207C1C2040201C3C4030403C442869
:101F10001028440C5050503C4464544C4400083643
:101F2000410000007F0000004136080008082A1C1C
:101F300008081C2A08080000581F0008000000209C
:101F40006C0000005C010008C41F00086C00002049
:101F5000C40700007801000800000000010203042B
:101F60000102030406070809020406080000000035
:101F70000000000000000000000000000000000061
:101F80000000000000000000000000000000000051
:101F90000000000000000000000000000000000041
:101FA00000000000FF008900880078005500000054
:101FB00000366E0100000000000000000102030472
:041FC00006070809FF
:0400000508001AEDE8
:00000001FF
